:020000040800F2
:10000000E00800209D020008D33F0008B735000833
:10001000D13F0008A7160008555500080000000051
:10002000000000000000000000000000B7430008CE
:10003000F916000800000000D53F0008B943000889
:10004000B7020008B7020008B7020008B7020008AC
:10005000B7020008B7020008B7020008B70200089C
:10006000B7020008B7020008B7020008B70200088C
:10007000B7020008B7020008B7020008B70200087C
:10008000B702000800000000B7020008B70200082D
:10009000B7020008B7020008B7020008B70200085C
:1000A000B7020008B7020008B7020008B70200084C
:1000B000B7020008B7020008B7020008B70200083C
:1000C000B7020008B7020008B7020008B70200082C
:1000D000B702000891520008B7020008B7020008F2
:1000E000B7020008B7020008B7020008B70200080C
:1000F000B7020008B7020008B702000800000000BD
:1001000000000000B702000800000000B70200086D
:10011000B70200080000000035440008B7020008DC
:10012000B7020008B7020008B7020008B7020008CB
:10013000B70200080000000000000000B70200083D
:10014000B7020008B702000800000000000000002D
:10015000000000000000000000000000000000009F
:10016000000000000000000000000000B7020008CE
:10017000B7020008000000000000000000000000BE
:1001800000000000B70200080000000000000000AE
:10019000000000000000000000000000000000005F
:1001A0000000000000000000B7020008B7020008CD
:1001B000B7020008B7020008B702000800000000FC
:1001C00000000000B702000800000000000000006E
:1001D000B7020008B702000800F002F800F04FF87C
:1001E0000AA090E8000C82448344AAF10107DA4592
:1001F00001D100F044F8AFF2090EBAE80F0013F095
:10020000010F18BFFB1A43F001031847A86D000047
:10021000C86D0000103A24BF78C878C1FAD85207D8
:1002200024BF30C830C144BF04680C607047000070
:100230000023002400250026103A28BF78C1FBD8EF
:10024000520728BF30C148BF0B607047662905F0D0
:100250005C85642900F01E81732900F0228500204E
:1002600070471FB505F04CFD00F020FD0400002094
:10027000002105F011FAE0601FBD10B510BD00F0BF
:1002800015FE1146FFF7EDFF05F0BAF900F033FE59
:1002900003B4FFF7F2FF03BC00F036FE09488047C5
:1002A00009480047FEE7FEE7FEE7FEE7FEE7FEE758
:1002B000FEE7FEE7FEE7FEE704480549054A064B70
:1002C0007047000025440008D9010008E002002022
:1002D000E0080020E0040020E004002053EA020CC3
:1002E00000F069802DE9F04B4FF00006002B1FBF96
:1002F000B3FA83F503FA05F424FA05F65E4012BF5B
:100300001643B2FA82F502FA05F4C5F120051EBFC4
:1003100022FA05FC44EA0C04203556EA044C4FEA64
:10032000144418BF641C4FF000084FF000099042BD
:1003300071EB030C39D3002919BFB1FA81F701FA27
:1003400007F6B0FA80F700FA07F6C7F120071EBFDC
:1003500020FA07FC46EA0C062037B6FBF4FCA7EBB4
:100360000507103F07F01F0BCBF120060CFA0BFB23
:100370002CFA06F644BFB3460026202FA4BF5E46E3
:100380004FF0000B5BEA060C08BF4FF0010B19EBB6
:100390000B09ABFB027C48EB0608C01B06FB02CC3A
:1003A0000BFB03CC71EB0C01C1E70B460246414647
:1003B0004846BDE8F08B13B54FF000004FF0000148
:1003C000AFF30080BDE81C40704700000FB41CB5BF
:1003D000074B06AA7B4469460090059800F037FC5D
:1003E0000020694600F046FC1CBC5DF814FB0000D0
:1003F0009D08000070B5044685690068C10601D5F6
:10040000302600E02026C00707D070BDD4E90121C6
:1004100030469047206A401C20626D1EF6D570BDA4
:1004200070B5044685690078C00707D170BDD4E96E
:10043000012120209047206A401C20626D1EF6D5C5
:1004400070BD70B50C460546012A05D02878800697
:1004500000D5EA69002302E0012305E05B1C93421A
:1004600002D2E05C0028F9D1A869E618C01AA86198
:10047000286A184428622846FFF7BCFF04E0D5E943
:10048000012114F8010B9047B442F8D32846FFF736
:10049000C7FF70BD2DE9F04106460024106875299C
:1004A000314616A510D0AFF30080002802DA404292
:1004B00013A507E031688A0701D512A502E04907B4
:1004C00004D511A5012401E0AFF3008000210A2228
:1004D00006F1240709E0B0FBF2FCB0FBF2F302FBEB
:1004E0001C00303078541846491C0028F3D12346AC
:1004F0002A463046BDE8F04100F03BB9000000005C
:100500002D0000002B000000200000002DE9F04726
:100510004FF0000A89460446C0F820A02046E16852
:100520008847002876D0252806D0D4E901219047B5
:10053000206A401C2062F1E7E168204600258847D8
:10054000C4F81CA006460027C4F818A02A2E09D01B
:10055000304605F028F838B304EB8708303EC8F879
:10056000186019E059F8041B204604EB87029161DA
:10057000E1688847012F064618D1E069002820DA93
:1005800025F020051DE0D8F8180000EB800006EBF0
:1005900040003038C8F818002046E1688847064611
:1005A00005F001F80028EED1012F0AD02E2E08D137
:1005B0002046E16888477F1C0646022F45F020054B
:1005C000C4DBA069002803DA404245F00105A061C0
:1005D000E80701D025F01005B6B1A6F141001928B1
:1005E00002D8203645F400654A463146204625604B
:1005F0004D46FFF72BFE58B1012806D0ED1D25F022
:10060000070000F1080989E704E005F1040985E71E
:1006100030468AE7206ABDE8F08710B5431C02E047
:1006200010F8011B71B18107FAD14FF0013202C8F5
:100630008C1A8C4314EAC211F9D0C01A0A0603D0EE
:10064000C01E10BDC01A10BD0A0401D0801E10BD0E
:100650000902FCD0401E10BD4FF000020429C0F07A
:10066000128010F0030C00F01B80CCF1040CBCF1E4
:10067000020F18BF00F8012BA8BF20F8022BA1EB36
:100680000C0100F00DB85FEAC17C24BF00F8012B1B
:1006900000F8012B48BF00F8012B70474FF0000213
:1006A00000B5134694469646203922BFA0E80C5068
:1006B000A0E80C50B1F12001BFF4F7AF090728BF43
:1006C000A0E80C5048BF0CC05DF804EB890028BFBF
:1006D00040F8042B08BF704748BF20F8022B11F0E8
:1006E000804F18BF00F8012B704700004FF0013C0D
:1006F00050F8042B51F8043B9A4221D1A2EB0C0391
:10070000934313EACC1317D150F8042B51F8043B50
:100710009A4215D1A2EB0C03934313EACC130BD1ED
:1007200050F8042B51F8043B9A4209D1A2EB0C0378
:10073000934313EACC13DBD04FF00000704700BFA7
:10074000D01A01BAB1FA81F101F0180122FA01F0D0
:10075000CB40C1F12001DBB2C0B2C01A2CFA01F3C8
:10076000D11A914311EAC311E6D17047704770471F
:1007700070472DE9F0470D4699469246044600F130
:1007800024080168880604D5E06921F01001216081
:1007900000E00120A84201DD471B00E00027A1691D
:1007A0007A1902EB0900081AA0612078C00602D469
:1007B0002046FFF71FFE002608E0D4E901211AF8C1
:1007C00006009047206A401C761C20624E45F4DBF0
:1007D0002078C0060AD52046FFF70CFE06E0D4E9D3
:1007E000012130209047206A401C2062381EA7F16A
:1007F0000107F4DC07E0D4E9012118F8050090476F
:10080000206A401C2062281EA5F10105F3DC204669
:10081000FFF706FE2078000602D50220BDE8F0872B
:100820000120FBE770472DE9FF4F0C461E464FF0B5
:10083000FF378BB0D2E90001DDF860800A908A466C
:10084000C1F30A5505B93D46002108464FF00000A6
:10085000BAF1000F00F4400005DA00EB80004FF41D
:10086000400101EA50004FEA9059B9F1010F00DD53
:10087000B9460A9850EA4A000ED044F61050A5F244
:10088000FF3545432F14B8F1000F1ED07542291EC5
:100890001EDDC9F100021CE0B8F1010F4FF00000AD
:1008A00001D0302103E0F24305E02154401CB04266
:1008B000FBDB30460022002121540B99C1F808804F
:1008C000C1E900200FB0BDE8F08FBD1B6D1CDEE755
:1008D0004A4600DA694206A800F072FA06AB93E8CD
:1008E000070003AB83E8070050460A9900F013FBAA
:1008F0008DE80700A0F500501F3800900398002DE8
:100900000ADD42F21F014A460844002303A903906E
:10091000684600F07CFD09E0A0F500504A461F380B
:10092000002303A90390684600F086FD8DE80700C8
:100930000004000C03D04FF0FF30410800E01046E7
:10094000B8F1000F03D00022009215461EE0751E7C
:1009500005D400F0AFF9303262556D1EF9D5B346BB
:100960000122084302D000227F1C04E020783028B6
:1009700001D100227F1E002A099784D01DE0112D8D
:1009800007DA00F097F9303262556D1C50EA010227
:10099000F5D1084302D00098C8B10EE00021681ECE
:1009A00005E0235C625C63542254401E491C814272
:1009B000F7DBAB46A81B401E0990002004F80B0093
:1009C0000B98099AC0F80880C0E9002B7AE7112635
:1009D0004FF0000857E72DE9F04F88460446D21D36
:1009E00022F0070191B0D1E90001CDE90A0104F03C
:1009F000B2FD02460B98C00F01D02D2007E0206801
:100A0000810701D52B2002E0202101EAC000032A42
:100A1000099001D0072A05DB03464146204600F035
:100A20008FF90BE12078800601D5E06900E006200F
:100A3000B8F1650F814606D0B8F1660F18D0B8F14D
:100A4000670F70D131E00020B9F1110F009001DB88
:100A5000112301E009F101030AAA01A90CA8FFF77B
:100A6000E2FEDDE90C70002609F10105834647E04E
:100A700001204B4600904FF000470AAA01A90CA89C
:100A8000FFF7D1FEDDE90DB00C995D46002610B9E7
:100A900009F101000D18B9EB050003D4C0F1FF36D0
:100AA00009F10105A5EB09002BE0B9F1010F01DA0D
:100AB0004FF001090020B9F1110F0090484601DD07
:100AC000112300E003460AAA01A90CA8FFF7ABFE18
:100AD000DDE90C704D4600268346207800070AD4D5
:100AE000AB4500DA5D4601A8012D04DD411911F87E
:100AF000011C302907D04F4502DA17F1040F04DA40
:100B0000012082460FE06D1EEEE7002F02DCED1B98
:100B10003E4403E0781CA84200DD7D1CB81B00F1B8
:100B2000010A4FF000472078000703D4AA4501DBF3
:100B30004FF0FF3A0021B7F1004F0DF143088DF857
:100B4000431024D002202B23002F01DA7F422D23D3
:100B50000A21021EA0F1010000DC5FB197FBF1FC4D
:100B600097FBF1F201FB1C7C17460CF1300C08F8E6
:100B700001CDEEE7A8F1010003702188090501D538
:100B8000452100E06521A0F1010800F8011C099849
:100B90000FA9A1EB0807FF1D00B10120411901EBCE
:100BA000EA70A1693844081A401EA0612078C00686
:100BB00002D42046FFF71EFC099828B1D4E9012190
:100BC0009047206A401C20622078C00622D520462B
:100BD000FFF710FC1EE0002E04DBB34502DD01A888
:100BE000805D00E03020D4E901219047206A401C5C
:100BF0002062761CAAF101005FEA000A0AD100F027
:100C000055F8C0680168405CD4E901219047206A2A
:100C1000401C2062281EA5F10105DCDC07E0D4E9B8
:100C2000012118F8010B9047206A401C2062381EF1
:100C3000A7F10107F3DC2046FFF7F2FB032011B018
:100C400041E6000001694A1C02610878704700B55E
:100C50008FB0CDE901310021059105497944CDE9F5
:100C6000031011466846FFF751FC0FB000BD0000AD
:100C7000E5FFFFFF0A6802F8010B0A60704710B534
:100C8000436913B1AFF3008001E0FFF7DAFB012005
:100C900010BD127800F124010A7000224A7001226E
:100CA000EDE711684FF0FF32E9E7000000487047B8
:100CB000A002002030B5B0F10A024FEA900E71F1A7
:100CC00000034EEA817EB0EB0E0061EB91014FEA2A
:100CD000101E4EEA017E10EB0E0041EB11114FEA9F
:100CE000102E4EEA016E10EB0E0041EB11214FEA7F
:100CF000104E4EEA014E10EB0E0041EB1141401830
:100D000041F100014FEAD00040EA41704FEAD101C1
:100D100010EB80054FEA810444EA907444EB01042F
:100D20006D1944EB0404521BA3414FF0000348BF6C
:100D30000A3200D530BD401C41F1000130BD000039
:100D40002DE9F0411F46044603260168072A01F4F5
:100D5000006004DB08B116A505E016A503E008B1A4
:100D600015A500E015A521F010002060A069C01EA7
:100D7000A0610FB1401EA0612046FFF73BFB4FB1C1
:100D8000D4E9012138469047206A401C2062C01CEB
:100D9000206206E0206AFAE7D4E9012115F8010B88
:100DA0009047761EF8D22046FFF73AFBBDE8F08167
:100DB0004E414E006E616E00494E4600696E6600FF
:100DC0002DE9F047814616468AB0354878440DC86B
:100DD0008DE80D0032487844801C03AC0DC884E8CF
:100DE0000D0041F69B300844372190FBF1F290FB57
:100DF000F1F5A5F1800501FB12041B3C02D564420C
:100E0000012000E00020DFF898A080460027FA4487
:100E1000AAF1BE0A0EE0E0070AD03246684607EBA8
:100E2000470101230AEB810100F006FB8DE8070072
:100E300064107F1C002CEED1194F7F44AE3F19E0A7
:100E4000E80715D007EB04100DF1180A90E80E0022
:100E50008AE80E00C068F04201D198190890324625
:100E6000012306A903A800F0E7FA03AB83E8070013
:100E70006D10641C002DE3D14FF00103324669462A
:100E8000B8F1000F03A802D000F0C1FA01E000F0B1
:100E9000D3FAC9E90001C9F808200AB0BDE8F08713
:100EA000CC61000000487047800200207546FFF7C3
:100EB000F9FFAE4605006946534620F00700854617
:100EC00018B020B5FFF7F8F9BDE820404FF0000654
:100ED0004FF000074FF000084FF0000B21F0070122
:100EE000AC46ACE8C009ACE8C009ACE8C009ACE865
:100EF000C0098D46704710B50446AFF30080204608
:100F0000BDE81040FFF7C4B901491820ABBEFEE7A9
:100F10002600020070475FEA400C08BF91F0000F06
:100F20004FEA8C234FEAC12243EA51514FEA1C5049
:100F300018BF00F5F0404FEA300018BF41F0004103
:100F40005FEA6C5C00F02980BCF1FF3F08BF40F015
:100F500080407047130C06BF12044FF0100C4FF086
:100F6000000C130E04BF12020CF1080C130F04BF87
:100F700012010CF1040C930F04BF92000CF1020C4F
:100F8000D30F04BF52000CF1010C11464FF00002C8
:100F9000A0F11F00A0EB0C00704711F0004F08BF3C
:100FA000704731F000413FF4D5AF0B0C06BF090488
:100FB0004FF0100C4FF0000C0B0E04BF09020CF1A7
:100FC000080C0B0F04BF09010CF1040C8B0F04BFBC
:100FD00089000CF1020CCB0F04BF49000CF1010C8D
:100FE000CCF12003A0EB0C0022FA03F302FA0CF27E
:100FF00041EA030100F10100704720F07F4C80EAD4
:10100000030023F07F47ACEB070303F57C5300F0AC
:10101000004003F1FF032DE980494FEA154B09B465
:101020004FEA144325EA0B4E24EA03480FF2042644
:1010300006EB132749083E785FEA320203FB066796
:10104000C7F5000707FB06F64FEA54374FEAD646C6
:1010500006F1020607FB066CCCF1005C4FEA1C4768
:101060002CEA074C07FB06F40CFB06F504EB1546CF
:101070004FEA961634BF00204FF000404FEAD137B8
:1010800006FB07FC4FEA1C4C0CFB0BF7D21B03FBC7
:101090000CF761EB07010CFB0EF7B0EB074072EBAE
:1010A00017420CFB08F734BFA2EB0742B2EB074232
:1010B00061EB17414FEA0C444FEA910706FB07FC2E
:1010C0004FEA1C4C0CFB0BF7B0EBC74072EB5732EE
:1010D00003FB0CF734BFA2EBC742B2EBC74261EB94
:1010E00057310CFB0EF7B0EBC70072EB57720CFBDD
:1010F00008F734BFA2EBC702B2EBC70261EB57712E
:10110000039F4FEA816141EA921104EBCC044FEA5C
:10111000D1374FEA826206FB07FC42EA90124FEA9F
:1011200080604FEA1C4C0CFB0BF7D21B03FB0CF747
:1011300061EB07010CFB0EF7B0EB074072EB1742B7
:101140000CFB08F734BFA2EB0742B2EB074261EB9E
:1011500017414FEA8C554FEA910704EB9C2406FB9C
:1011600007FC4FEA1C4C0CFB0BF7B0EBC74072EBD3
:10117000573203FB0CF734BFA2EBC742B2EBC742B6
:1011800061EB57310CFB0EF7B0EBC70072EB5772F7
:101190000CFB08F734BFA2EBC702B2EBC70261EB4E
:1011A000577115EB4C254FEA816141EA92114FEAE4
:1011B00082624FEAD13742EA901206FB07FC44F103
:1011C00000044FEA80604FEA1C4C0CFB0BF7D21B6B
:1011D00003FB0CF761EB07010CFB0EF7B0EB0740CC
:1011E00072EB17420CFB08F734BFA2EB0742B2EBDD
:1011F000074261EB174115EB1C154FEA813141EABB
:1012000092414FEA823242EA90424FEA80304FEAFE
:101210000C7644F1000448EA03434EEA0B484FF0D1
:10122000000EB2EB080C71EB030724BF624639468F
:101230004EEB0E0E4FF0000B0018524149414BEBA4
:101240000B0BB2EB080C71EB03077BF1000B24BF17
:10125000624639464EEB0E0E4FF0000B001852411D
:1012600049414BEB0B0BB2EB080C71EB03077BF125
:10127000000B24BF624639464EEB0E0E51EA0207C0
:1012800018BF46F0010616EB0E7655F1000254F138
:10129000000103D5BDE88901BDE80088BDE88901EA
:1012A000BDE80048B619524141EB0101A3F1010329
:1012B000704780807F7E7D7C7B7A797877767675C3
:1012C0007473727171706F6E6E6D6C6C6B6A6A693B
:1012D0006868676666656464636362616160605FD5
:1012E0005F5E5E5D5D5C5C5B5B5A5A59595858574E
:1012F00057565655555554545353525252515150B6
:1013000050504F4F4F4E4E4D4D4D4C4C4C4B4B4B08
:101310004A4A4A494949484848474747474646464E
:101320004545454444444443434343424242424189
:101330004141002B9C4630D477002BD01CB54FEA9E
:10134000370703B44FF010004FF01001BAF1000F4F
:1013500006D0BCF1000FDCBF40F0080040F00801EF
:101360004FF000000FBCBDE810400BF1010BBBF1CA
:10137000010F08BF5FEA170722BF12F1010211F146
:1013800001014FF0004143F1000300F0004043EA47
:1013900000007047F9D35708D0E746EA064613F134
:1013A000400F4FEA16461FDD13F1200FDFBF164333
:1013B0000A46002120335B42BED0C3F1200746EA33
:1013C000064602FA07F74FEA164646EA0706C3F151
:1013D000200722FA03F201FA07F721FA03F14FF08E
:1013E000000342EA0702A7E746EA020646EA064683
:1013F0004FEA164646EA0106BCBF46EA0646360CE8
:101400004FF000034FF000024FF0000194E72DE988
:10141000804C9A46934670B491E8380007C831EA88
:10142000400C48BF34EA430C03D5FFF7E6FDFFF755
:1014300080FFF0BCBDE8008C2DE9804C9A469346B5
:1014400070B491E8380007C810F0804F08BF13F05F
:10145000804F03D100F005F8FFF76BFFF0BCBDE84B
:10146000008C20F07F4780EA030023F07F4C07EBDD
:101470000C03A3F57C5300F00040A3F1FE0392F0AF
:10148000000F00F0B38095F0000F00F077802DE999
:1014900001494FEA11404FEA144621EA004800FB97
:1014A00006FC24EA064708FB06F607FB08F800FBE3
:1014B00007F718EB06484CEB164C4FEA124B18EBAB
:1014C00007484FEA15464CEB174022EA0B4E0BFB40
:1014D00006FC25EA06470EFB06F607FB0EFE0BFB95
:1014E00007F71EEB064E4CEB164C4FF000061EEBBA
:1014F000074E4CEB174B18EB0B0840F1000018EBB4
:101500000E0B58EB000840F100008F1A4FF000015D
:101510003CBFC943661B14BFB5EB040C00213CBFA4
:10152000C943F61B4FEA17444EEA8E0E27EA0445DC
:101530004FEA1C4704FB07622CEA074C05FB07F740
:101540000CFB05F604FB0CFC16EB074642EB1742BE
:1015500016EB0C4642EB1C421BEB060658EB020254
:10156000414146EA9E0601D5BDE80189B6195241BE
:1015700041EB0101A3F10103BDE801894FEA1445E4
:101580004FEA114724EA054621EA074C05FB07F418
:1015900006FB07F70CFB06F105FB0CFC11EB074102
:1015A00044EB17444FEA124711EB0C4144EB1C4447
:1015B00022EA074C05FB07F206FB07F70CFB06F6D1
:1015C00005FB0CFC16EB074642EB174216EB0C46EC
:1015D00042EB1C456A1854F1000148BF7047B61928
:1015E000524141EB0101A3F10103704795F0000F57
:1015F00037D04FEA11424FEA144721EA024624EA63
:10160000074C02FB07F106FB07F70CFB06F402FB95
:101610000CFC14EB074441EB17414FEA154714EB60
:101620000C4441EB1C4125EA074C02FB07F506FB85
:1016300007F70CFB06F602FB0CFC16EB074645EB26
:10164000174516EB0C4645EB1C42121951F10001EF
:1016500048BF7047B619524141EB0101A3F10103A4
:1016600070474FEA14454FEA114724EA054621EA3C
:10167000074C05FB07F106FB07F70CFB06F24FF0E2
:10168000000605FB0CFC12EB074241EB174112EB85
:101690000C4251EB1C4148BF7047921841EB0101CD
:1016A000A3F101037047FEE770B5124C618916295A
:1016B00001D0002070BD01780025432901D05629B2
:1016C00014D141784E2911D1817842290ED1C178A7
:1016D00052290BD101793A2908D1417A3A2905D109
:1016E000807A30380A2801D2012070BD03F0D6FD7F
:1016F0006581DEE7000000207047002240F6B83325
:1017000006E00021491C89B29942FBD3521C92B2D7
:101710008242F6D3704772B6FEE710B590F82530D6
:1017200000210122022B03D00421C163012122E008
:1017300003681C6824F00E041C60836C1C6824F48D
:1017400080741C6003681C6824F001041C6090F81D
:101750004430046C03F01F0302FA03F36360D0E922
:1017600013345C60436D33B11C6824F480741C60D6
:10177000D0E916345C6080F82520002280F824200F
:10178000084610BD70B590F825200024012123469D
:10179000022A07D00422C26380F8251080F8243082
:1017A000012429E00268156825F00E05156002681D
:1017B000156825F001051560826C156825F48075A3
:1017C000156090F84420056C02F01F0201FA02F245
:1017D0006A60D0E913255560426D32B1156825F471
:1017E00080751560D0E91625556080F8251080F8C1
:1017F0002430816B01B18847204670BD70B5044626
:1018000000F03CF90546601C02D0044840680444DE
:1018100000F034F9401BA042FAD370BD3000002024
:101820002DE9F04FDFF82092002301260324A9F1CF
:10183000040B85B00F2709F1040AABF1040EFAE09E
:1018400006FA03F52A407CD091F804C00CF0030C92
:10185000BCF1010F02D0BCF1020F26D1D0F808C0B4
:10186000CDF800C04FEA430C04FA0CF8CDF810C0D4
:10187000DDF800C02CEA080CCDF800C0D1F80C80CF
:10188000DDF810C008FA0CF8DDF800C048EA0C08D2
:10189000C0F80880D0F804C02CEA050C0D79C5F317
:1018A00000159D4045EA0C0545600D79ED43AD07F7
:1018B0000ED0C5684FEA430804FA08FC25EA0C0577
:1018C000D1F808C00CFA08FC4CEA050CC0F80CC0B2
:1018D0000D7905F00305022D16D1DD0800EB850C0E
:1018E000CDF808C0DCF820805D074FEAD56C07FA18
:1018F0000CF528EA05080D6905FA0CF5DDF808C0B5
:1019000045EA0805CCF8205005684FEA430CCDF8AD
:1019100008C004FA0CFC25EA0C0591F804C00CF090
:101920000308DDF808C008FA0CF848EA0508C0F812
:1019300000804D6815F4403F7CD0444DD5F860C020
:1019400000E077E04CF0010CC5F860C02D6E23F08C
:10195000030C05F0010500953D4D65440295AD6809
:101960004FEA837C4FEA1C7807FA08FC25EA0C054D
:10197000B0F1904F06D0DFF8DCC0604505D14FF0E4
:10198000010C20E04FF0000C1DE0DFF8CCC06045FA
:1019900002D14FF0020C16E0DFF8C0C0604502D162
:1019A0004FF0030C0FE0DFF8B8C0604502D14FF0F4
:1019B000040C08E0DFF8ACC0604502D14FF0050C24
:1019C00001E04FF0060C0CFA08FC4CEA050C029DF5
:1019D000C5F808C0D9F80050CC46D1F8048095432A
:1019E0005FEAC82800D51543CCF80050DAF800505B
:1019F000D446D1F8048095435FEA882800D5154382
:101A0000CCF80050DBF80050DC46D1F80480954358
:101A10005FEA883800D51543CCF80050DEF8005056
:101A2000F446D1F8048095435FEAC83800D51543E1
:101A3000CCF800505B1C0A6832FA03F57FF400AF63
:101A400005B0BDE8F08F000008040140001002401E
:101A5000000001400004004800080048000C004855
:101A600000100048001400480069084000D0012020
:101A700070470AB181617047816270470148806890
:101A8000704700003000002002488168426811441D
:101A9000816070473000002010B50024032000F062
:101AA00073F80F2000F008F808B1012401E000F0FD
:101AB00025F8204610BD000070B50E4E05460024E6
:101AC000706898B14FF47A71B1FBF0F00A49096877
:101AD000B1FBF0F000F0EFFE40B9102D06D200226D
:101AE0002946501E00F030F8356000E00124204601
:101AF00070BD0000300000203C0000200A4882B089
:101B0000016E41F001010166016E01F001010091D9
:101B1000816D41F080518165806D00F080500090B2
:101B200002B000F0A1B8000000100240002809DB5C
:101B300000F01F02012191404009800000F1E020E7
:101B4000C0F8001170470000F0B40E4B1B680C4643
:101B5000C3F30223C3F10705042D00D90425191D81
:101B6000072901D2002300E0DB1E012606FA05F159
:101B7000491E214099409E40761E16403143F0BCDC
:101B800003F001BD0CED00E0064900F00702086813
:101B90004FF6FF03184040EA0220034A1043086052
:101BA000704700000CED00E00000FA052B492C4BBB
:101BB0000A6832214A432B4940B1B0F5007F0868DA
:101BC00029D020F4C06040F480602CE00868C0F3A5
:101BD0004120022804D051F8800F20F4807022E0C8
:101BE000D1F8800020F48070C1F88000086820F4EB
:101BF000C06040F400700860B2FBF3F0401C00E0ED
:101C0000401E4A69520501D50028F9D148694005AE
:101C10000AD503207047C0F34120022806D051F8AE
:101C2000800F40F48070086000207047D1F8800079
:101C300040F48070C1F88000086820F4C06040F46F
:101C400000700860B2FBF3F0401C00E0401E4A69DF
:101C50005205DBD50028F9D1D8E700003C00002070
:101C600040420F00007000400248816841F480410A
:101C700081607047007000402DE9F8430446006819
:101C800000269D4D00035ED5A86D0027C00008D436
:101C9000A86D40F08050A865A86D012700F0805025
:101CA0000090DFF85892D9F8001041F48071C9F81B
:101CB0000010FFF7E3FE804606E000BFFFF7DEFE00
:101CC000A0EB080002282BD8D9F80000C005F5D5F4
:101CD000D5F8900010F4407014D0216C814211D0DE
:101CE000D5F89000D5F8901020F4407041F4803180
:101CF000C5F89010D5F8901021F48031C5F89010F7
:101D0000C5F89000C00711D0FFF7B8FE804641F239
:101D1000883907E0FFF7B2FEA0EB0801494501D979
:101D200003260BE0D5F890008007F3D5D5F8900096
:101D3000216C20F440700843C5F890001FB1A86DD5
:101D400020F08050A8652078C00707D0D5F888001B
:101D5000616820F003000843C5F8880020788007F8
:101D600007D5D5F88800A16820F00C000843C5F815
:101D700088002078400707D5D5F88800E16820F072
:101D800030000843C5F888002078000707D5D5F84B
:101D90008800216920F0C0000843C5F88800207839
:101DA000800607D5D5F88800616920F440600843B3
:101DB000C5F888002078400607D5D5F88800A169C5
:101DC00020F440500843C5F888002078000607D565
:101DD000D5F88800E16920F440400843C5F8880040
:101DE0002088C00507D5D5F88800216A20F4403046
:101DF0000843C5F888002088800507D5D5F88800F5
:101E0000616A20F440200843C5F888002088400516
:101E10000FD5D5F88800A16A20F440100843C5F812
:101E20008800A06AB0F5801F03D1E86840F48010F4
:101E3000E860208800050FD5D5F88800E16A20F415
:101E400040000843C5F88800E06AB0F5800F03D170
:101E5000E86840F48010E8602088C0040FD5D5F809
:101E60008800216B20F040700843C5F88800206B83
:101E7000B0F1807F03D1E86840F48010E8602088EA
:101E80004FF0006180040ED5D5F88800626B20F019
:101E900040601043C5F88800606B884203D1E86851
:101EA00040F48010E860208840040ED5D5F8880002
:101EB000A26B20F040601043C5F88800A06B8842F8
:101EC00003D1E86840F48010E860208800040FD552
:101ED000D5F88800E16B20F040500843C5F8880031
:101EE000E06BB0F1805F03D1E86840F48030E860D7
:101EF0003046BDE8F883000000100240007000404A
:101F00002DE9F0470E4605004FF0000725D0DFF819
:101F1000AC81D8F8000000F00F00B0420CD2D8F825
:101F2000001021F00F013143C8F80010D8F800006C
:101F300000F00F00B04210D12968614CC80741F28F
:101F4000883A5AD06868DFF87C91032808D00228C4
:101F500020682DD0400500282CDB0120BDE8F0874B
:101F600020688001F9D5E06800F00302E068C0F362
:101F70000310401C032A19D0534A00BFB2FBF0F0F3
:101F8000E268C2F306225043E268C2F34162521C87
:101F90005200B0FBF2F0484517D9A06810F0F00FDE
:101FA0000CD0880711D5A86840B10EE0474AE5E794
:101FB0008003D0E700F0B6F8484506D9A06820F0C5
:101FC000F00040F08000A0608027A068696820F0E1
:101FD00003000843A060FFF751FD814606E000BF03
:101FE000FFF74CFDA0EB090151453AD8A06869689C
:101FF00000F00C00B0EB810FF2D12868810714D5F6
:10200000400703D5A06840F4E060A060287800078E
:1020100005D5A06820F4605040F4E060A060A0689E
:10202000A96820F0F000084304E0802F03D1A068E5
:1020300020F0F000A060D8F80010404601F00F0139
:10204000B14216D9016821F00F0131430160FFF759
:1020500015FD074607E000BFFFF710FDC11B514506
:1020600001D903207AE7D8F8000000F00F00B04251
:10207000F2D12878400705D5A068E96820F4E0602F
:102080000843A0602878000706D5A068296920F4D5
:10209000605040EAC100A06000F044F8A1680C4A1A
:1020A000C1F30311515C01F01F01C84009490860E8
:1020B00009480068BDE8F047FFF7FEBC0020024079
:1020C0000010024000B4C4040024F40000366E0185
:1020D000066F00083C00002030000020054806493B
:1020E00000688968054AC1F30221515C01F01F01B3
:1020F000C84070473C00002000100240166F0008E6
:102100000548064900688968054AC1F3C221515C47
:1021100001F01F01C84070473C0000200010024041
:10212000166F0008184910B58868C0F38102174877
:10213000012A0BD08A68164BC2F38102022A06D00C
:102140008A68C2F38102032A03D0002010BD18461A
:1021500010BDCA6802F00304CA68C2F30312521C1D
:10216000032C02D0B0FBF2F001E0B3FBF2F0CA683E
:10217000C968C2F306225043C1F34161491C4900BA
:10218000B0FBF1F010BD0000001002400024F4008C
:1021900000366E012DE9F84304007AD02078FA4D1C
:1021A000C00747D0A868E96800F00C0001F00301FF
:1021B0000C2802D0082817D001E0032914D0606849
:1021C000B0F5803F17D0B0F5A02F286817D020F4C5
:1021D00080302860286820F4802028606068E0B1A2
:1021E000FFF74CFC064614E02868800322D560689F
:1021F0000028D2D01EE0286840F48030EDE740F49B
:1022000080202860F7E700BFFFF738FC801B6428B8
:1022100070D828688003F7D50CE0FFF72FFC06463E
:1022200005E000BFFFF72AFC801B6428F0D828686F
:102230008003F7D4207880074CD5A868E96800F0BF
:102240000C0001F003010C2802D004280DD001E09D
:1022500002290AD0E068002828682BD040F480705A
:102260002860FFF70BFC064619E02868400502D5F8
:10227000E068002891D06868217C20F0FE4040EAA8
:1022800001606860C1480068FFF716FC002800D1B3
:1022900020E076E1FFF7F2FB801B0228B8D828681F
:1022A0004005F7D56868217C20F0FE4040EA0160D7
:1022B00068600FE020F480702860FFF7DFFB0646BF
:1022C00005E000BFFFF7DAFB801B0228A0D82868D2
:1022D0004005F7D42078000729D560690028D5F893
:1022E000940013D040F00100C5F89400FFF7C6FB3E
:1022F000064606E090E000BFFFF7C0FB801B022807
:1023000086D8D5F894008007F6D510E020F00100BB
:10231000C5F89400FFF7B2FB064604E0FFF7AEFBFA
:10232000801B022878D8D5F894008007F6D420784E
:10233000400761D5A86D0026C00008D4A86D40F004
:102340008050A865A86D012600F08050009090484C
:102350000168C90511D40168804641F480710160AB
:10236000FFF78CFB074604E0FFF788FBC01B022841
:1023700052D8D8F80000C005F6D5A068012815D0BD
:102380000528D5F8900016D020F00100C5F890007F
:10239000D5F8900020F00400C5F89000A06841F244
:1023A0008838B8B1FFF76AFB07460EE0D5F8900011
:1023B00040F00100F0E740F00400C5F89000F5E7B8
:1023C000FFF75CFBC11B414526D8D5F8900080077C
:1023D000F6D50CE0FFF752FB074604E0FFF74EFB93
:1023E000C11B414518D8D5F890008007F6D41EB11E
:1023F000A86D20F08050A8652078800629D5A069B6
:102400000028D5F8980013D040F00100C5F89800D6
:10241000FFF734FB064606E077E000BFFFF72EFB30
:10242000801B022877D8D5F898008007F6D510E0F1
:1024300020F00100C5F89800FFF720FB064604E0F5
:10244000FFF71CFB801B022865D8D5F89800800791
:10245000F6D4E069F0B3A968C1F38101032961D022
:102460000228286820F0807028600BD0E86820F0EF
:102470000300E860E86847490840E860FFF7FEFAB3
:1024800004464BE0FFF7FAFA064604E0FFF7F6FAD7
:10249000801B02283FD828688001F7D4F4E908019E
:1024A0006FF00F0202EB01110843218A5204490820
:1024B00002EB4151A26841EA02210843217D4FF01D
:1024C0007E42490802EB41610843217B40EAC1603A
:1024D000E96800E062E0304A11400843E86028689B
:1024E00040F080702860E86840F08070E860FFF796
:1024F000C5FA044605E000BFFFF7C0FA001B02283A
:1025000009D828688001F7D548E004E0FFF7B6FA5B
:10251000001B022802D90320BDE8F8832868800147
:10252000F4D43BE00128F7D0E868226A00F0030108
:10253000914226D1616A00F0F002090110399142FE
:102540001FD1A26A00F4FE41B1EB022F19D194F819
:102550002C2000F07841B1EBC26F12D1218E00F433
:10256000C00249084905A1F50011914209D194F82A
:10257000341000F0C06049084906A1F100718142A1
:102580000CD00120C8E700000010024030000020FD
:1025900000700040FFFFEEFE0C809F010020BBE7B3
:1025A00070B5044690F82400012810D0012584F865
:1025B0002450022084F825002168CA20486221683E
:1025C00053204862204601F0A9FE10B109E0022024
:1025D00070BD2068816941F010018161204601F0E1
:1025E000C2FE2268FF21516208B984F825500021FB
:1025F00084F8241070BD000070B504004FF0010095
:1026000040D094F8250028B9002084F82400204602
:1026100000F03CF8022084F825002168CA204862B6
:10262000216853204862204601F078FE10BB2068E4
:102630008169154A11408161216888696268A369CE
:10264000104322691A43104388612189E06840EAF7
:10265000014021680861204601F085FE50B9D4E9A7
:102660000721114322686369956925F060452B4372
:10267000194391612268FF215162002802D1012192
:1026800084F8251070BD0000BFFF8FFB10B598B017
:102690000446142111A8FEF701F844216846FDF70D
:1026A000FDFF1A49206888422ED14FF40020009087
:1026B0004FF4407010906846FFF7DEFA08B1FFF75C
:1026C0002AF8134850F8901F41F4004140F844198B
:1026D000C16841F48061C160C16801F480611691F4
:1026E000016841F001010160006811A900F00100DA
:1026F00016900220119012900020139014901590C3
:102700004FF09040FFF78CF818B010BD0028004043
:102710000010024070B5044690F824000B460128D2
:102720001BD0012684F82460022084F82500B2B171
:102730009878D97840EA014558781978000240EA3B
:10274000413005432168CA2048622168532048620D
:10275000204601F0E3FDD0B120E0022070BD5878A2
:10276000C10603D500F0EF000A305870D87801F0A8
:10277000C9FD0504587801F0C5FD45EA00259878A3
:1027800001F0C0FD0543187845EA4035DAE708480E
:10279000054020684560204601F0E5FD2268FF21E4
:1027A000516208B984F82560002184F8241070BDB6
:1027B0003FFFFF002DE9F041044690F824009046C9
:1027C0000D46012811D0012784F82470022084F8D6
:1027D00025002168CA2048622168532048622046AB
:1027E00001F09CFD002618B129E00220BDE8F0812F
:1027F0002068B8F1000F80694FEA406024D00028BB
:1028000000DBEE70A8782978EA7840EA0140697820
:10281000090241EA825108431849084021680860CA
:102820002068816921F480218161D5E90301084391
:1028300021688A6910438861204601F094FD22686E
:10284000FF215162A0B115E0002800DBEE7028786E
:1028500001F058FD0304687801F054FD43EA0023B9
:10286000A87801F04FFD0343E87843EA8050D3E7AE
:1028700084F8257084F82460B8E700007F7F7F002B
:1028800070B504460068C16821F02001C160FFF7FF
:10289000F5F805464FF47A7607E000BFFFF7EEF84B
:1028A000401BB04201D9032070BD2068C06880067B
:1028B000F4D5002070BD10B5401EB0F1807F01D36B
:1028C000012010BD4FF0E02460610F21601702F07D
:1028D0005AFE0020A06107202061002010BD704733
:1028E00070477047F0B590F83C20012A4AD0012289
:1028F00080F83C20CA688B6822F440721A434B6807
:1029000022F480621A430B6822F400621A430B69B6
:1029100022F480521A434B6922F400521A430B6B83
:1029200022F480421A430B8B22F4702242EA0342C3
:10293000154C03680026154DA34201D0AB4203D1CC
:10294000CF6922F080523A43A34201D0AB4214D166
:102950000F8D22F4700242EA07520F6A22F0807251
:102960003A434F6A22F000723A43A34201D0AB428D
:1029700003D1C96A22F000520A435A6480F83C60CD
:102980000020F0BD0220F0BD002C014000340140C9
:102990007047704770470000F0B590F83C20012A5E
:1029A0003AD0012580F83C50022280F83D2003688F
:1029B0005A689C68194E1A4FB34201D0BB4204D1E9
:1029C00022F4700C4A6842EA0C02DFF858C002EAAE
:1029D0000C02D1F800C04CEA020CC3F804C0026833
:1029E000B2420DD0B2F1804F0AD00F4B9A4207D0BD
:1029F0000E4B9A4204D0BA4202D00D4B9A4204D1F7
:102A0000896824F080031943916080F83D500021CB
:102A100080F83C100846F0BD0220F0BD002C0140BB
:102A2000003401408FFFFFFD00040040000800401B
:102A300000400140704710B5040003D094F83D00F9
:102A400010B107E0012010BD002084F83C002046B2
:102A500000F022F8022084F83D00211D206801F0DA
:102A6000EFFC012084F8480084F83E0084F83F0021
:102A700084F8400084F8410084F8420084F8430060
:102A800084F8440084F8450084F8460084F8470040
:102A900084F83D00002010BD08B5114A01681148B6
:102AA000914211D1816D41F010018165806D00224C
:102AB00000F01000009003213620FFF745F8BDE834
:102AC00008403620FFF732B8074A914207D1016E1D
:102AD00041F480210166006E00F48020009008BD62
:102AE000001000400010024000480140704770B5DF
:102AF0000446006801694FF00005C943890715D4F1
:102B0000C168C943890711D4E91E016101202077FA
:102B1000206880698007204602D0FFF7E7FF04E0C5
:102B200000F00CF9204600F0CEF925772068016905
:102B3000C943490717D4C168C943490713D46FF083
:102B400004010161022020772068806910F4407F31
:102B5000204602D0FFF7CAFF04E000F0EFF820465D
:102B600000F0B1F9257720680169C943090716D437
:102B7000C168C943090712D46FF00801016104203C
:102B800020772068C0698007204602D0FFF7AEFF9B
:102B900004E000F0D3F8204600F095F9257720688E
:102BA0000169C943C90617D4C168C943C90613D40A
:102BB0006FF010010161082020772068C06910F4CF
:102BC000407F204602D0FFF791FF04E000F0B6F806
:102BD000204600F078F9257720680169C943C907C4
:102BE00008D1C168C943C90704D1891E01612046C3
:102BF00000F0E8F920680169C943090609D4C168F1
:102C0000C943090605D46FF0800101612046FFF732
:102C100067FE20680169C943C90509D4C168C94371
:102C2000090605D46FF4807101612046FFF757FE55
:102C300020680169C943490609D4C168C9434906E6
:102C400005D46FF040010161204600F0BCF9206816
:102C50000169C943890609D4C168C943890605D4F5
:102C60006FF0200101612046FFF73BFE20680169FB
:102C7000C943C90209D4C168C943C90205D46FF464
:102C8000801101612046FFF784FE20680169C94375
:102C9000890209D4C168C943890205D46FF40011BF
:102CA00001612046FFF774FE20680169C9434902AB
:102CB00009D4C168C943490205D46FF48001016198
:102CC0002046FFF767FE20680169C94309020BD45B
:102CD000C168C943090207D46FF4000101612046AD
:102CE000BDE87040FFF7A6BE70BD000010B586B00D
:102CF000044614216846FDF7D1FC0E49206888423D
:102D000016D10D48C16C41F00101C164C06C0021B5
:102D100000F001000590802000900220CDE9010123
:102D200003900120049069464FF09040FEF778FD33
:102D300006B010BD0048014000100240704770B559
:102D4000044690F83C0000260D4601280BD00120D7
:102D500084F83C000C2A4AD007DC82B1042A20D037
:102D6000082A06D131E0022070BD102A53D0142A5F
:102D700063D00126002084F83C00304670BD2068F6
:102D800001F0C4FB2068816941F00801816120687D
:102D9000816921F004018161206881692A691143F8
:102DA00011E0206801F000FC2068816941F40061B5
:102DB00081612068816921F4806181612068816975
:102DC0002A6941EA02218161D4E7206801F034FCDC
:102DD0002068C16941F00801C1612068C16921F022
:102DE0000401C1612068C1692A69114311E02068AA
:102DF00001F06AFC2068C16941F40061C16120688A
:102E0000C16921F48061C1612068C1692A6941EA10
:102E10000221C161AEE7206801F09EFC2068016DCF
:102E200041F0080101652068016D21F00401016590
:102E30002068016D2A69114311E0206801F0C4FC8B
:102E40002068016D41F4006101652068016D21F485
:102E5000806101652068016D2A6941EA02210165EE
:102E600088E710B5040003D094F83D0010B107E0E6
:102E7000012010BD002084F83C00204600F022F81C
:102E8000022084F83D00211D206801F0D9FA0120BC
:102E900084F8480084F83E0084F83F0084F840003D
:102EA00084F8410084F8420084F8430084F8440028
:102EB00084F8450084F8460084F8470084F83D0013
:102EC000002010BD7047704730B50446022269B13A
:102ED000042912D0082917D00C291CD0102921D080
:102EE00094F84300012824D0012030BD94F83E001E
:102EF0000128F9D184F83E201DE094F83F00012814
:102F0000F2D184F83F2016E094F840000128EBD17C
:102F100084F840200FE094F841000128E4D184F8BF
:102F2000412008E094F842000128DDD184F84220D5
:102F300001E084F843200122206801F0D9FA194BFE
:102F400020681949194A984209D0884207D090420E
:102F500005D0174DA84202D0164DA84203D1456CAA
:102F600045F400454564206898420CD0B0F1804F8C
:102F700009D0114B984206D0104B984203D088429A
:102F800001D0904207D181680D4A1140062906D030
:102F9000B1F5803F03D0016841F0010101600020DC
:102FA00030BD0000002C01400034014000400140D1
:102FB0000044014000480140000400400008004077
:102FC000070001007047704790F88010012918D061
:102FD000012180F880102421C0F8841050F8641B6F
:102FE0000A680B6823F001030B6022F000510022F5
:102FF000026050F8643C196020210162027710469B
:103000007047022070477047704770B5044690F8CB
:10301000800001281DD0012084F880002420C4F8FD
:10302000840020680568026822F0010202602068BE
:10303000826822F060620A438260204601F0FCFB55
:10304000206805602020C4F88400002084F88000F7
:1030500070BD022070BD70B5044690F88000012854
:103060001DD0012084F880002420C4F8840020684A
:103070000568026822F0010202602068826822F07E
:1030800060420A438260204601F0D6FB206805605A
:103090002020C4F88400002084F8800070BD022045
:1030A00070BD7047704770472DE9F04103680446D2
:1030B000D86919689A6840F60F0528424FF0000554
:1030C00009D186067ED501F0200602F080573E43E6
:1030D00078D0216F27E1A94EA94F16400F40374302
:1030E00070D0C70709D0CF0507D501271F62D4F8D4
:1030F0008C3043F00103C4F88C3083070AD5D30722
:1031000008D0276802233B62D4F88C3043F00403D4
:10311000C4F88C3043070AD5D30708D027680423A6
:103120003B62D4F88C3043F00203C4F88C300307C0
:103130000CD501F02003334308D0266808233362FE
:10314000D4F88C3043F00803C4F88C3003050BD559
:103150004B0109D526684FF400633362D4F88C30F4
:1031600043F02003C4F88C30D4F88C30002B3AD0D4
:10317000800609D501F0200002F08051084303D0F9
:10318000216F09B120468847D4F88C0021688968EE
:10319000490602D410F0280F27D0204601F00CFC7D
:1031A0002068806840061BD52068083050E8001F62
:1031B00021F0400140E80012002AF5D1E06F78B11B
:1031C000704900E017E08163E06FFEF7DBFA00284A
:1031D00009D0E06F816B00E02046BDE8F041084770
:1031E0002046FFF760FFBDE8F0812046FFF75BFF58
:1031F000C4F88C50F7E7E76E2026012F7ED1C70672
:103200007CD5CF067AD510201862206880684006E9
:1032100042D5E16F086840680004000CE3D0B4F8C0
:103220005C208242DFD9A4F85E000868006880064E
:103230002BD4206850E8001F21F4807140E8001270
:10324000002AF6D12068083050E8001F21F0010163
:1032500040E80012002AF5D12068083050E8001F2D
:1032600021F0400140E80012002AF5D1C4F888603E
:10327000E566216851E8000F20F0100041E80002E7
:10328000002AF6D1E06FFEF748FAB4F85C00B4F813
:103290005E10401A81B22CE0B4F85C00B4F85E1005
:1032A000401A81B2B4F85E0000289CD000299AD060
:1032B000226852E8000F20F4907042E80003002BCF
:1032C000F6D12E4BDB432068083050E8002F1A401F
:1032D00040E80027002FF6D1C4F88860E56625672E
:1032E000226852E8000F20F0100042E80003002B93
:1032F000F6D12046FFF787FE75E7FFE7C70209D53D
:10330000570207D54FF4801018622046BDE8F041FF
:10331000FFF7C8BE03060AD501F0800302F40002DD
:10332000134304D0616F00297FF456AF5BE7420678
:1033300011D54A060FD52046016851E8002F22F02A
:10334000400241E80023002BF6D1C0F884604567B5
:1033500000F030F947E7020206D54A0004D52046BE
:10336000BDE8F041FFF79DBEC001C5D50029C3DA15
:103370002046BDE8F041FFF747BE00000100001005
:1033800020010004A549000810B5040003D0D4F8BA
:10339000840010B107E0012010BD002084F88000F7
:1033A000204600F027F82420C4F884002068016833
:1033B00021F001010160204601F040FD0128EBD021
:1033C000A06A10B1204601F059FA2068416821F442
:1033D000904141602068816821F02A018160206865
:1033E000016841F0010101602046BDE8104001F094
:1033F000A9BA000010B598B00446142111A8FDF731
:103400004DF944216846FDF749F91B492068884277
:1034100030D101200024CDE900046846FEF72CFCE1
:1034200008B1FEF778F91548016E41F48041016654
:10343000016E01F480411691C16C41F00101C1643B
:10344000C06C11A900F0010016904FF4C0601190FB
:103450000220CDE912040720CDE914404FF090403E
:10346000FEF7DEF9002211462520FEF76DFB252030
:10347000FEF75CFB18B010BD0038014000100240A0
:1034800030B4D0F88830202B20D1E1B1DAB190F8F7
:103490008030012B1AD0012380F880300023C366CE
:1034A0000B4C0368A3420BD05B681B0208D5046871
:1034B00054E8003F43F0806344E80035002DF6D126
:1034C00030BC01F0F5BD012030BC70470220FBE7A5
:1034D000008000400549064B48898A791A54401CEF
:1034E00048810122891D0348FFF7CABF0000002060
:1034F000DD000020F00100202DE9F8430446D0F85B
:1035000084001F4616460D46202851D1DDB1D6B1A4
:1035100094F8800001284BD0012084F880004FF0FF
:103520000008C4F88C802120C4F884001834FEF709
:10353000A5FAA6878146E68754F8100C183CB0F52A
:10354000805F03D004E00120BDE8F883206920B14A
:103550002E46002584F8808010E00026FAE78021BE
:10356000204601F031FEB8B9C6B116F8010B21684A
:103570008862B4F85600401EA4F85600B4F856000D
:103580004B464FF0000200970028E8D14FF0400171
:10359000204601F019FE30B10320D5E735F8020BC3
:1035A000C0F30800E3E72020C4F884000020CBE744
:1035B0000220C9E77047FEE770B557482DED068B2E
:1035C0000168564C2269891A64297CD300682061FD
:1035D000534D01212846FEF747FA88B91E20FEF711
:1035E0000DF901212846FEF73FFA18B9607978B144
:1035F0000020607101212846FEF736FA0028F9D034
:1036000002212846FEF730FA9FED468B10B126E0E6
:103610000120EEE71E20FEF7F1F802212846FEF712
:1036200023FAB0B96079012813D194ED060B53EC5D
:10363000182B51EC100B02F045F8C4E9060194ED8B
:10364000080B53EC182B51EC100B02F03BF8C4E9BB
:10365000080102212846FEF707FA0028F9D00421C4
:103660002846FEF701FA78BB1E20FEF7C7F80421B2
:103670002846FEF7F9F940BB60799FED2C9B0128A5
:1036800026D194ED060B53EC182B51EC100B02F0E5
:103690004DFA41EC1A0B53EC182B84ED06AB94ED6C
:1036A000080B51EC100B02F041FAC4E9080153EC8D
:1036B000192B51EC1A0B02F0FFF809D284ED069B8E
:1036C0009FED1C0B02E023E008E001E084ED080B15
:1036D00004212846FEF7C8F90028F9D04FF090459C
:1036E00001212846FEF7C0F9002811D11E20FEF75F
:1036F00085F801212846FEF7B7F918B9207980F03E
:103700000100207101212846FEF7AEF90028F9D00A
:10371000BDEC068B70BD00003800002000000020CA
:1037200000040048000000000000E03F000000002E
:103730000000F83F000000000000000000B585B068
:1037400014216846FCF7AAFF4FF6FF700090002096
:103750000321CDE90201019069460248FEF760F8B5
:1037600005B000BD0008004800B585B014216846CA
:10377000FCF794FF4FF6FF700090012001900320AA
:1037800003900020029069460248FEF749F805B010
:1037900000BD00000008004870B500240646214620
:1037A000204600F0B7F900F0F5F94FF496353046B1
:1037B00000F0C4F9641CAC42F9D370BD01A100F063
:1037C00061B8000020202020202020202020202060
:1037D00020202020202020200000000030B587B0CD
:1037E00014216846FCF75AFF1E48C16C41F00401E1
:1037F000C164C16C01F004010591C16C41F001018B
:10380000C164C16C01F001010591C16C41F002017C
:10381000C164C06C012500F0020005904FF44870AF
:10382000CDE9000500240394694602940E48FDF793
:10383000F7FF280203940090CDE901544FF0904423
:1038400069462046FDF7ECFFFFF78EFFA06940F4C4
:103850008070A06104481830016841F4087101606B
:1038600007B030BD0010024000040048203AD2B238
:10387000034B02EB420203EB021200F019B8000006
:103880000E5D0008F0B50E460746002540F23F14D5
:1038900007E021463846FFF7E9FF103C6D1CA4B253
:1038A000761C3278002A01D0142DF2D3F0BD00002E
:1038B0002DE9F04791468A460026044600F02AF991
:1038C000DFF84080012700BF00F064F95FF00005D9
:1038D00039F8160007FA05F10842404601D1408840
:1038E00000E0008800F02AF96D1C102DF0D3641C54
:1038F000E4B25146204600F00DF9761C182EE3D3B1
:10390000BDE8F0872800002010B5FFF767FF002012
:1039100000F0B8F8084CA080A088A0F5024130392A
:1039200006D000F0EEFB002000F0ACF8A08010BD47
:1039300000F05EFBF7E700002800002010B52748E4
:103940000168274C6269891A322945D30068606191
:10395000607900B323A11820FFF794FF94ED060BC4
:1039600026A153EC102B2B48FCF730FD29494820A9
:10397000FFF788FF94ED080B27A153EC102B254887
:10398000FCF724FD23497820FFF77CFFBDE81040B9
:10399000A820FFF713BF26A11820FFF773FF627856
:1039A00029A11C48FCF712FD1A494820FFF76AFFBD
:1039B000A2782AA11748FCF709FD16497820FFF7DD
:1039C00061FFE2782AA11348FCF700FDBDE8104032
:1039D0001049A820FFF756BF10BD00003800002096
:1039E0000000002020202020202020205061726133
:1039F0002020202020202020200000002020204304
:103A00004E42523A25312E3266202020202020209E
:103A100020000000C8000020202020564E42523ACC
:103A200025312E326620202020202020200000007A
:103A3000202020202020202044617461202020208C
:103A40002020202020000000202020434E42523A17
:103A50002564202020202020202000002020205627
:103A60004E42523A256420202020202020200000B1
:103A700020202049444C453A256420202020202045
:103A80002020000070B51D490A6842F400720A60E7
:103A90000A6842F480720A60184C103C226842F0B6
:103AA00020022260164A1060086840F0200008607A
:103AB00000BF00BF00BF206840F0200020602068E9
:103AC00040F480702060FFF739FE4FF09041886A23
:103AD00040F48070886200BF00BF00BF0848001F2C
:103AE000006885B2886940F480708861FFF73CFE09
:103AF000206840F400702060284670BD280400480B
:103B00001408004801B5BDF800000149488008BD0F
:103B10002800002010B50C460146202000F068F86F
:103B20002146BDE81040212000F062B801B5BDF883
:103B300000000149088008BD28000020134A1168D0
:103B400041F400711160114910390B6843F480731E
:103B50000B600B6843F020030B600D4B186010687E
:103B600040F02000106000BF00BF00BF086840F0B8
:103B700020000860086840F48070086000BF00BF43
:103B800000BF086840F400700860704728040048CF
:103B9000140800481449086840F400700860086878
:103BA00040F48070086010481038026842F020022B
:103BB00002600E4B22221A600A6842F020020A605C
:103BC00000BF00BF00BF016841F020010160016833
:103BD00041F48071016000BF00BF00BF016841F483
:103BE0000071016070470000280400481408004874
:103BF000184B10B51A6842F400721A601A6842F441
:103C000080721A60134A103A146844F02004146059
:103C1000114C2060186840F02000186000BF00BF01
:103C200000BF106840F020001060106840F4807001
:103C300010602160186840F02000186000BF00BFCD
:103C400000BF106840F020001060106840F48070E1
:103C5000106010BD280400481408004870B5124DCB
:103C6000044601224FF47F412846FDF702FF0F4E24
:103C7000012204213046FDF7FCFE002204213046DB
:103C8000FDF7F7FE210200222846FDF7F2FE012291
:103C900004213046FDF7EDFE3046BDE870400022BD
:103CA0000421FDF7E6BE000000080048000C0048B3
:103CB00010490A681048C368D21A322A18D3096812
:103CC000C16001460289097812B141F0010101E0A9
:103CD00021F00101017001790029017805D041F03E
:103CE00002010170C8B2FFF7B9BF21F00201F8E785
:103CF000704700003800002000000020F0B587B0B9
:103D000014216846FCF7CAFC3148C16C41F004013B
:103D1000C164C16C01F004010591C16C41F0200146
:103D2000C164C16C01F020010591C16C41F0010139
:103D3000C164C16C01F001010591C16C41F0020147
:103D4000C164C16C01F002010591C16C41F0080130
:103D5000C164C06C1F4E00F00800059001224FF4B2
:103D60007C513046FDF785FE00224FF4404130463D
:103D7000FDF77FFE184F002204213846FDF779FE3B
:103D80004FF47F40009001250024CDE9015469469D
:103D900030460394FDF744FDCDE9005469464FF0E9
:103DA00090400294FDF73CFD0720CDE900046946F0
:103DB0000A480294FDF734FD04200090CDE9015437
:103DC000694638460394FDF72BFD07B0F0BD0000AF
:103DD0000010024000080048000C004800040048A1
:103DE00010B586B014216846FCF758FC234800241F
:103DF00021490594C0E900147D21816041F2707170
:103E0000C0E903144FF080414461C0E906410462F7
:103E1000FEF7F2FB08B1FDF77EFC0B208DF80000E9
:103E20003B208DF8010032208DF8020001940394AC
:103E30000022694611480494FEF7BCFC08B1FDF766
:103E40006AFC01208DF814008DF815008DF816001D
:103E50008DF81740002205A90848FEF75BFC08B161
:103E6000FDF759FC0548FEF79BFB002801D0FDF744
:103E700052FC06B010BD00000028004030010020B8
:103E800010B594B01C210DA8FCF708FC342168463D
:103E9000FCF704FC20481F49002401604F21C0E9C1
:103EA000011440F2E731C0E903148021C0E9054163
:103EB000FEF7C1FD08B1FDF72EFC1748FEF7D1FF54
:103EC00008B1FDF728FC60200D90C820CDE90E0454
:103ED00010941194129400220DA90F481394FEF728
:103EE0002EFF08B1FDF717FC00944FF40050CDE908
:103EF00004400194029403940694694606480C9485
:103F0000FEF7F0FC08B1FDF706FC0348FEF7EEFEF5
:103F100014B010BD00480140A40100203EB50024AB
:103F20001048009401940E490294016041F63F71DB
:103F3000C0E9011442F20F71C16080218161FEF776
:103F40007AFD08B1FDF7E7FB009469460548029445
:103F5000FEF722FD002801D0FDF7DDFB3EBD00008D
:103F60000010004058010020184810B516490160A3
:103F70004FF416514160002181600C22C160C0E9FC
:103F800004128161C161016241628162FFF7FCF943
:103F900008B1FDF7C0FB00210C48FFF75CF808B141
:103FA000FDF7B9FB00210948FFF72FF808B1FDF72D
:103FB000B2FB0648FFF708F8002803D0BDE8104020
:103FC000FDF7A9BB10BD000000380140F001002042
:103FD000FEE7FEE77047000003480179034801B19E
:103FE000C8210160704700000000002034480140F3
:103FF00030B501210020FFF7FBFD4FF47A70FDF78B
:104000007CFB00210120FFF7F3FD41F290711020AD
:10401000FFF7EEFD4FF41C516020FFF7E9FD012191
:104020006120FFF7E5FD02214620FFF7E1FD48F2A0
:1040300010011320FFF7DCFD48F2FE011220FFF70C
:10404000D7FD4FF4A0610220FFF7D2FD41F230010D
:104050000320FFF7CDFD40F2033421463020FFF767
:10406000C7FD21463120FFF7C3FD21463220FFF76F
:10407000BFFDE51E29463320FFF7BAFD032134209A
:10408000FFF7B6FD21463520FFF7B2FD142136209B
:10409000FFF7AEFD21463720FFF7AAFD2146382065
:1040A000FFF7A6FD21463920FFF7A2FD29463A2059
:1040B000FFF79EFD03213B20FFF79AFD21463C20A0
:1040C000FFF796FD4FF4A0513D20FFF791FD4FF40F
:1040D00000719220FFF78CFD21469320FFF788FDA9
:1040E00040F60D019020FFF783FD41F218010320F7
:1040F000FFF77EFDBDE8304040F273110720FFF767
:1041000077BD10B543F20801E320FFF771FD1221DE
:10411000E720FFF76DFD41F23121EF20FFF768FD49
:1041200000210120FFF764FD4FF4E0610220FFF75A
:104130005FFD41F230010320FFF75AFD002104200A
:10414000FFF756FD40F207210820FFF751FD00213F
:104150000920FFF74DFD00210A20FFF749FD00214E
:104160000C20FFF745FD00210D20FFF741FD002148
:104170000F20FFF73DFD00211020FFF739FD07213B
:104180001120FFF735FD00211220FFF731FD00213E
:104190001320FFF72DFDC820FDF730FB41F29061A1
:1041A0001020FFF725FD40F227211120FFF720FD09
:1041B0003220FDF723FB1D211220FFF719FD3220CD
:1041C000FDF71CFB4FF400611320FFF711FD1421D4
:1041D0002920FFF70DFD0B212B20FFF709FD3220D1
:1041E000FDF70CFB00212020FFF702FD002121201C
:1041F000FFF7FEFC07213020FFF7FAFC40F20771C1
:104200003120FFF7F5FC06213220FFF7F1FC40F2E8
:1042100004713520FFF7ECFC41F604713620FFF7FE
:10422000E7FC04213720FFF7E3FC00213820FFF7EB
:10423000DFFC40F206713920FFF7DAFC40F2017131
:104240003C20FFF7D5FC0F213D20FFF7D1FC0021DA
:104250005020FFF7CDFCEF215120FFF7C9FC0021D2
:104260005220FFF7C5FC40F23F115320FFF7C0FC7E
:104270004FF41C516020FFF7BBFC01216120FFF7C8
:10428000B7FC00216A20FFF7B3FC00218020FFF774
:10429000AFFC00218120FFF7ABFC00218220FFF75B
:1042A000A7FC00218320FFF7A3FC00218420FFF757
:1042B0009FFC00218520FFF79BFC10219020FFF739
:1042C00097FC00219220FFF793FC03219320FFF736
:1042D0008FFC4FF488719520FFF78AFC002197200E
:1042E000FFF786FC00219820FFF782FC41F21801BD
:1042F0000320FFF77DFCBDE8104040F2731107205A
:10430000FFF776BC0022014602E00A39C9B2521C0E
:104310000A29FAD2100741EA106070472DE9F041EE
:10432000044600680025C168490619D4C16841F0F7
:104330008001C160FDF7A2FB06464FF47A7803279F
:1043400008E000BFFDF79AFB801B404502D903251A
:1043500084F825702068C068400601D4032DF1D18F
:104360002846BDE8F08170B5044600680025C168A4
:1043700021F08001C160206881694FF00306890641
:1043800007D42046FEF77CFA98B184F8256003250F
:104390000FE0816921F0200181612046FEF770FA6B
:1043A00010B184F8256003252068816941F020015F
:1043B0008161284670BD7047FDF766BB10B594B0AB
:1043C00038216846FCF76AF914210EA8FCF766F953
:1043D0004FF40070FDF7EAFB01200090000401900B
:1043E00002200324CDE907041421CDE90A100C9022
:1043F0000D9009946846FDF7CDFE08B172B6FEE750
:104400000F20CDE90E04002010901190129002218F
:104410000EA8FDF775FD002801D072B6FEE714B0B6
:1044200010BD00000248016841F47001016070474E
:1044300088ED00E00148FEF75ABB0000580100205B
:104440002DE9F0430268234B234D244E244C4FF0BA
:104450008049984207D0484505D0A84203D0B042D1
:1044600001D0A04203D122F070074A683A431D4FA1
:10447000DFF874C0DFF8748098420DD048450BD047
:10448000A84209D0B04207D0A04205D0B84203D01C
:10449000604501D0404503D122F44075CA682A43E3
:1044A0004D6922F080022A4302608A68C2620A686B
:1044B0008262984207D0A04205D0B84203D060453E
:1044C00001D0404501D10969016301214161BDE885
:1044D000F0830000002C0140000400400008004070
:1044E00000340140004001400044014000480140C8
:1044F00010B501F01F030121046A99408C43046246
:10450000016A9A401143016210BD00002DE9F04399
:10451000026A22F001020262056A436882691C4C49
:1045200025F0020522400C6822F0030214438A6839
:10453000194E2A43174D194FDFF864C0DFF8649015
:10454000A84207D0B04205D0B84203D0604501D0A0
:10455000484506D122F00808CA6842EA080222F05B
:104560000402A84207D0B04205D0B84203D060454B
:1045700001D0484505D14D6923F440731D438B6933
:104580002B4343608461496841630262BDE8F08364
:104590008FFFFEFF002C014000340140004001402D
:1045A0000044014000480140F0B5026A22F01002C8
:1045B0000262056A42688369194C1B4E23400C68ED
:1045C00023F4407343EA042425F020038D6843EA72
:1045D0000513144DA84201D0B04206D1CF6823F094
:1045E000800343EA071323F04003A8420AD0B042F5
:1045F00008D00E4DA84205D00D4DA84202D00D4D59
:10460000A84207D14D6922F4406242EA85028D69D1
:1046100042EA850242608461496881630362F0BDB9
:10462000FF8FFFFE002C014000340140004001409C
:104630000044014000480140F0B5026A22F4807253
:104640000262056A4368C269194C1B4E22400C681D
:1046500022F00302144325F400728D6842EA052219
:10466000144DA84201D0B04206D1CF6822F40062B6
:1046700042EA072222F48062A8420AD0B04208D05F
:104680000E4DA84205D00E4DA84202D00D4DA842B5
:1046900007D14D6923F4405343EA05138D6943EA7A
:1046A00005134360C4614968C1630262F0BD000044
:1046B0008FFFFEFF002C014000340140004001400C
:1046C0000044014000480140F0B5026A22F48052E3
:1046D0000262056A4268C369194C1B4E23400C688C
:1046E00023F4407343EA042425F400538D6843EA1D
:1046F0000533144DA84201D0B04206D1CF6823F44F
:10470000004343EA073323F48043A8420AD0B0426F
:1047100008D00E4DA84205D00D4DA84202D00D4D37
:10472000A84207D14D6922F4404242EA85128D69C0
:1047300042EA85124260C461496801640362F0BDC7
:10474000FF8FFFFE002C014000340140004001407B
:10475000004401400048014030B5026A22F4803232
:104760000262046A4268036D114D2B400D681D43BF
:1047700024F400330C8943EA04430E4CA0420BD0CE
:104780000D4CA04208D00D4CA04205D00C4CA042CC
:1047900002D00C4CA04204D14C6922F4803242EA8F
:1047A00004224260056549688164036230BD0000EF
:1047B0008FFFFEFF002C014000340140004001400B
:1047C000004401400048014030B5026A22F48012E2
:1047D0000262046A4268036D114D24F400142B40F8
:1047E0000D6843EA05230D8944EA05540D4DA8429E
:1047F0000BD00D4DA84208D00C4DA84205D00C4D51
:10480000A84202D00B4DA84204D14D6922F4802267
:1048100042EA8522426003654968C164046230BD92
:10482000FF8FFFFE002C014000340140004001409A
:10483000004401400048014030B5416EB9B1026802
:1048400091689268C1F342610B4B520F9C5CE5008A
:1048500003F10804A25CB5FBF2F2A0F86A205A5CEE
:10486000615CD200B2FBF1F1A0F8681030BD01210B
:10487000A0F86A10F8E70000F66E000890F828101B
:10488000C90706D001684A68C36A22F400321A4395
:104890004A6090F82810890706D501684A68036BBA
:1048A00022F480321A434A6090F82810490706D54E
:1048B00001684A68436B22F480221A434A6090F8E8
:1048C0002810090706D501684A68836B22F4004264
:1048D0001A434A6090F82810C90606D501688A680C
:1048E000C36B22F480521A438A6090F8281089061C
:1048F00006D501688A68036C22F400521A438A6064
:1049000090F82810490611D501684A68436C22F4D2
:1049100080121A434A60416CB1F5801F06D10168CC
:104920004A68836C22F4C0021A434A6090F8281047
:10493000090606D501684A68C06C22F400220243C9
:104940004A607047F8B500260446C0F88C60FDF751
:1049500095F80546206800686FF07E47000708D587
:104960002B4600224FF400112046009700F02CFC4B
:1049700060B92068006840070AD52B4600224FF432
:1049800080012046009700F01FFC08B10320F8BD0D
:104990002020C4F88400C4F8880044F86C6F00201C
:1049A0002675F8BD10B5806A0021A0F85E10A0F849
:1049B0005610FEF778FB10BD10B5026852E8001FD4
:1049C00021F4907142E80013002BF6D10E4B0268DF
:1049D000083252E8001F194042E80014002CF6D1BA
:1049E000C16E012908D1016851E8002F22F01002A0
:1049F00041E80023002BF6D12021C0F888100021C7
:104A0000C166016710BD0000FEFFFFEF10B5B0F8F2
:104A10006020D0F888300168222B04D0886940F0EB
:104A20000800886110BD496A836D11401980816D4D
:104A3000891C8165B0F85E10491EA0F85E10B0F8C0
:104A40005E100029EED1026852E8001F21F4907137
:104A500042E80013002BF6D10168083151E8002F1D
:104A600022F0010241E80023002BF5D12021C0F8FB
:104A7000881000210167C26E012A02D0FEF72AFDCC
:104A800010BDC166026852E8001F21F0100142E823
:104A90000013002BF6D10168CA69D243D20601D4B3
:104AA00010220A62B0F85C10FEF7ADFA10BD0000EB
:104AB0002DE9F0470446B0F860600068C569D0F899
:104AC00000A0D0F80880D4F88810222905D0816988
:104AD00041F008018161BDE8F087B4F868704FF0DB
:104AE000000963E02068406AA16D30400880A06D35
:104AF000801CA065B4F85E00401EA4F85E0020682B
:104B0000C569690730D0E9070AD05FEACA5107D5FD
:104B100001210162D4F88C0040F00100C4F88C003F
:104B2000A8070BD55FEAC87008D021680220086288
:104B3000D4F88C0040F00400C4F88C0068070BD552
:104B40005FEAC87008D0216804200862D4F88C009D
:104B500040F00200C4F88C00D4F88C0020B120464C
:104B6000FEF7A1FAC4F88C90B4F85E00F0B92168A1
:104B700051E8000F20F4807041E80002002AF6D1CD
:104B8000264A2068083050E8001F114040E8001312
:104B9000002BF6D12020C4F88800C4F87090E16E94
:104BA0004846012923D02046FEF794FC0FB1A80601
:104BB00098D4B4F85E0000288DD0B4F86810814213
:104BC00089D92068083050E8001F21F0805140E862
:104BD0000012002AF5D112482067206850E8001F13
:104BE00041F0200140E80012002AF6D173E7E066A8
:104BF000216851E8000F20F0100041E80002002A6F
:104C0000F6D12068C169C943C90601D410210162E7
:104C1000B4F85C102046FEF7F6F9C7E7FEFFFFEF99
:104C20000D4A000810B5B0F86020D0F8883001684F
:104C3000222B04D0886940F00800886110BD496AC1
:104C40001140826D1170816D491C8165B0F85E1054
:104C5000491EA0F85E10B0F85E100029EED102687F
:104C600052E8001F21F4907142E80013002BF6D1A6
:104C70000168083151E8002F22F0010241E80023C9
:104C8000002BF5D12021C0F8881000210167C26EE9
:104C9000012A02D0FEF71EFC10BDC166026852E870
:104CA000001F21F0100142E80013002BF6D101682B
:104CB000CA69D243D20601D410220A62B0F85C104D
:104CC000FEF7A1F910BD00002DE9F0470446B0F849
:104CD00060600068C569D0F800A0D0F80880D4F8FA
:104CE0008810222905D0816941F008018161BDE861
:104CF000F087B4F868704FF0000963E02068406AFC
:104D0000A16D30400870A06D401CA065B4F85E0035
:104D1000401EA4F85E002068C569690730D0E90725
:104D20000AD05FEACA5107D501210162D4F88C008C
:104D300040F00100C4F88C00A8070BD55FEAC870EA
:104D400008D0216802200862D4F88C0040F00400EA
:104D5000C4F88C0068070BD55FEAC87008D02168DA
:104D600004200862D4F88C0040F00200C4F88C00E3
:104D7000D4F88C0020B12046FEF795F9C4F88C9049
:104D8000B4F85E00F0B9216851E8000F20F480709B
:104D900041E80002002AF6D1264A2068083050E88F
:104DA000001F114040E80013002BF6D12020C4F86A
:104DB0008800C4F87090E16E4846012923D020464F
:104DC000FEF788FB0FB1A80698D4B4F85E0000285F
:104DD0008DD0B4F86810814289D92068083050E835
:104DE000001F21F0805140E80012002AF5D112483E
:104DF0002067216851E8000F40F0200041E80002E0
:104E0000002AF6D173E7E066216851E8000F20F030
:104E1000100041E80002002AF6D12068C169C943A8
:104E2000C90601D410210162B4F85C102046FEF7D7
:104E3000EAF8C7E7FEFFFFEF254C00082DE9F04137
:104E40000446016880682269E369104362690025AD
:104E50001A431043DFF82CC20A688B4B1A400243F6
:104E60000A6020684168E26821F4405111434160C2
:104E70002168A069614501D0226A10438A68834B8A
:104E80001A4002438A602068C16A626A21F00F01F9
:104E90001143C1627E4923687E488B420DD1D0F810
:104EA000880010F0030006D0012855D0022842D017
:104EB00003283FD152E001203DE077498B420BD1DE
:104EC000D0F8880010F00C0035D0042833D0082822
:104ED00040D00C282ED141E070498B420BD1D0F844
:104EE000880010F0300026D0102835D0202831D08E
:104EF00030281FD132E06A498B420BD1D0F88800AC
:104F000010F0C00017D0402826D0802822D0C0281A
:104F100010D123E063450DD1D0F8880010F4406033
:104F200009D0B0F5806F17D0B0F5006F12D0B0F592
:104F3000406F13D010205B495B4F00264FF40042B6
:104F400063453BD160B1022813D004280BD0082858
:104F500072D10DE00220EEE70420ECE70820EAE73A
:104F6000FDF7BCF801E0FDF7DDF8010001D17CE0C0
:104F70001146606A37F810206768B1FBF2F007EB62
:104F80004703834270D8B0EB073F6DD80023084633
:104F90001946FBF7A3F9090241EA106102027808F9
:104FA000101871413A460023FBF798F93F4AA0F5E3
:104FB0004071914258D82168C86056E0E3694FF6C5
:104FC000EF7893422CD109284ED2DFE800F0050893
:104FD000114D0D4D4D4D1000FDF780F801E0FDF72E
:104FE0008FF8010004D140E0FDF79CF8F9E7114685
:104FF000606A37F81000B1FBF0F04100606801EB27
:105000005001B1FBF0F0A0F1100141452CD84FF652
:10501000F0710140C0F3420001432068C16024E008
:10502000092821D2DFE800F0050912200E202020F7
:105030001100FDF753F802E016E0FDF761F80100FA
:1050400004D112E0FDF76EF8F9E71146606A37F80F
:105050001000B1FBF0F1606801EB5001B1FBF0F022
:10506000A0F1100141450AD901250120A4F86A00E8
:1050700024F8680F2846A660E660BDE8F08180B29B
:1050800099E7000000800040F369FFCFFFF4FF11B3
:105090000038014000100240004400400048004039
:1050A000004C00400024F400DE6E0008FFFC0F00FE
:1050B00070B58165A0F85C20A0F85E200021016732
:1050C00083684FF48055FF24AB4204D10369FBB9D8
:1050D00040F2FF1322E07F26C3B1B3F1805F1AD004
:1050E000A0F86010C0F88C102223C0F88830036844
:1050F000083353E8004F44F0010443E80046002E13
:10510000F5D1436EB3F1005F0ED032E0036943B9CD
:10511000A0F86040E6E703691BB13F23A0F86030C8
:10512000E0E7A0F86060DDE7B0F86830934220D88F
:105130008268AA4201D10269CAB11F4A026780F897
:105140008010016941B1026852E8001F41F480718A
:1051500042E80013002BF6D10168083151E8002F16
:1051600042F0805241E80023002BF5D121E0134AA0
:10517000E4E78268AA4201D102697AB1104A026763
:1051800080F88010016959B1026852E8001F41F4AB
:10519000907142E80013002BF6D10AE0094AEEE7CD
:1051A000026852E8001F41F0200142E80013002B82
:1051B000F6D1002070BD0000C94C0008B14A0008BB
:1051C000254C00080D4A00082DE9F0479A4617467D
:1051D0000E4604464FF000094FF02008089D4AE0B3
:1051E000681C48D0FCF74AFCA0EB0A00A8422AD869
:1051F0004DB32068016849073DD5C069C04300052B
:1052000039D421684FF400600862206850E8001F1C
:1052100021F4D07140E80012002AF6D1206808304D
:1052200050E8001F21F0010140E80012002AF5D1EA
:1052300044F8848FC4F80480C4F8088004F8049CFF
:105240000320BDE8F087216851E8000F20F4D070FA
:1052500041E80002002AF6D12068083050E8001F1B
:1052600021F0010140E80012002AF5D144F8848FB2
:10527000C4F80480E2E72068C06936EA000004D080
:105280000020B842ACD00020DBE70120F9E70000A5
:105290000148FDF709BF0000F001002010B508A18A
:1052A0000948FBF793F808482838FBF7B6F982B2AB
:1052B000BDE81040322304490448FEF71DB9000040
:1052C0004572726F720D0A0005010020F001002086
:1052D0002DE9F04F89B09748FCF7E6F9002870D027
:1052E0009448817AC27A303901EB81036FF02F0143
:1052F00001EB43031A4402F0FF0B027B437B303A7D
:1053000002EB820201EB42021A4402F0FF0A827BA6
:10531000C37B303A02EB820201EB42021A4402F0F4
:10532000FF09027C437C303A02EB820201EB42022D
:105330001A4402F0FF08827CC37C303A02EB8202FE
:1053400001EB42021A44D7B2427D007D042330387B
:1053500000EB800001EB40001044C6B20522754905
:1053600004A800F08BF904230022724906A800F07B
:1053700085F9714CBAF10C0F7ED8B9F11E0FFBD82C
:10538000B8F1170FF8D83B2FF6D83B2EF4D804A865
:1053900000F020F9FF2815D004A800F01BF9FF2821
:1053A0003DD004A800F016F9624900EB00109D39C9
:1053B000014401900D4606A8FBF798F900285BD13F
:1053C00036E0B3E000F0F6F8FF2855D0594900EB7D
:1053D00000109D39451800900423002206A9284694
:1053E00000F04CF9681D0423052204A900F046F9D9
:1053F00085F80AB085F80BA085F80C9085F80D802B
:10540000AF73EE73012028744A4900989D39085CF7
:10541000432805D0562807D0E078401EE0707FE092
:105420006078401C60707BE0A078401CA07077E042
:10543000A97AABEB010040F26D1110FB01F1EA7AA1
:10544000AAEB0200C0EB00102A7B01EB4001A9EBA4
:105450000200084439496A7B4843A8EB0201C1EBCA
:105460004112C2EB012100EB0110A97B791AC1EBBB
:10547000011100EB810000E050E0E97B40F60F6293
:10548000711A0844C117801841F10001521C002311
:10549000FAF724FF064600F0C9F941EC100B254944
:1054A00001989D39085C43282DD094ED081B00BF5E
:1054B00053EC112B51EC100B00F03AFA00961D4EF4
:1054C000CDE902019D3E6B1D2A461DA106F1C500D6
:1054D000FAF77CFF06F1C500FBF79FF882B2322392
:1054E00006F1C5011A48FEF707F80198305C432819
:1054F0000CD056280ED0E078401CE07028461121D0
:10550000FBF7AAF80CE094ED061BD1E76078401E8B
:105510006070F3E7A078401EA070EFE7FFF7BEFED3
:1055200028210448FBF798F80020608109B0BDE805
:10553000F08F0000DD0000200000002080510100FD
:1055400025733A25733A25643A252E32660D0A00F2
:10555000F0010020FEE703B401984100009850EAF2
:10556000C12018BF04204A0D18BF40F0010040F2CE
:10557000FF72B2EB515F08BF40F00200012808BF84
:10558000052002B070470907090E002804DB00F16E
:10559000E02080F80014704700F00F0000F1E020D8
:1055A00080F8141D704730380A2801D20120704756
:1055B000002070470649002000EB00120A44127CCC
:1055C000002A04D0401CC0B20828F5D3FF20704741
:1055D0004000002070B5094D0646002404EB04107D
:1055E00041193046491DFBF781F828B1641CE4B22B
:1055F000082CF3D3FF2070BD204670BD4000002072
:10560000FCF74AFAFEF780F9FEF7D8FEFEF776FBC4
:10561000FEF7E6FBFEF782FCFEF732FCFEF7A4FC89
:105620000020FEF71BFB0020FEF7B6F80020FEF777
:1056300069FA4FF6FF70FEF779FA00210B48FDF783
:1056400043FC0B490020086001220A490A48FDF783
:1056500017FF00BFFEF72CFBFDF7AEFFFEF76EF95C
:10566000FEF7BAFCFFF734FEF4E70000A4010020C7
:105670003448014006000020F001002030B500242D
:1056800004E015194D5D0555641CE4B29C42F8D345
:105690000021C15430BD000010B500290AD008789F
:1056A000002807D005487844FBF720F8002801D0EF
:1056B000002010BD0248784410BD00002E190000E3
:1056C0002619000010B591EA030F48BF83F000438C
:1056D00000F13482841A71EB030C05D2121943EBEA
:1056E0000C03001B61EB0C01DFF824E14FEA1154BD
:1056F000A4EB135C1EEA430F18BF9EEA445F73D00D
:1057000023EA0E03DCF1200E21EA045143F4801356
:1057100032D322FA0CFE10EB0E0023FA0CFE41EB02
:105720000E01CCF1200E03FA0EFE10EB0E0051F12B
:105730000001B1F5801FCCF1200E32D201EB0451F3
:1057400012FA0EF2BDE8104058BF7047401C38BF37
:105750005FEA420218BF7047002814BF20F0010022
:1057600041F100014FEA410313F5001F38BF7047B4
:10577000A1F1C04100F0D4B9012A43EB0302ACF11E
:10578000200CDCF11F0E32BF4FF0000E23FA0CF399
:1057900010EB030041EB0451B4EB115FD0D0A1EB4F
:1057A000045101F5801149085FEA300001EB045112
:1057B0000ED350F1000038BF12FA0EFE08D1BDE83A
:1057C0001040C9E7401C38BF5FEA4202CAD1C3E7B4
:1057D000BDE810404FEA410313F5001F38BF704782
:1057E000A1F1C04100F09CB99EEA445F08D011EAE3
:1057F0005E0FBDE8104004BF01F00041002070477B
:10580000BDE8104070B500F03DF900BF64FBBE3E3E
:105810000000E0FF491058BFC1F140415B1058BF84
:10582000C3F140438B42EFF300807047B1FA81F33C
:105830000B3B20D3994010D1B0FA80F310FA03F15A
:1058400008BF7047C3F11D0303F580634FEAD122FF
:105850004FEA415002EB03517047C3F1200C20FA8C
:105860000CFC9840C3F1320303F5806341EA0C015C
:1058700001EB0351704710B5C3F10004C3F1320CC2
:10588000C4F1200E0CF5806201FA0EFC21FA04F13D
:1058900000FA0EF3E040BDE8104040EA0C0001EBD6
:1058A000025138BF7047401C41F100015B0008BF46
:1058B00020F001007047000051EA030C17D41CF5DA
:1058C000801F58BFBCF5801F00F10680994218BFA9
:1058D000704708BF9042704707D711F5801F58BF27
:1058E00013F5801F19D499427047894270471CF5FF
:1058F000801F08D5BCF5801FF7D58B4218BF7047B5
:1059000008BF824270474FF4001C1CEB410F38BFA8
:105910001CEB430F01D28B42704770B500F0B2F818
:10592000922449004FF000514FF08053FFF772BFAF
:10593000DFF848C170B51CEA111E1EBF1CEA131522
:105940009EEA0C0F95EA0C0F00F06F8081EA0304C9
:1059500023EA4C134EEAD47E21EA4C1141F4801123
:1059600043F48013AE44A1FB024CA0FB0365AEF1EF
:105970007F7E361955EB0C05A1FB034C4CF100035F
:10598000A0FB021C16EB0C06654153F10003094213
:1059900018BF46F0010613F4007F0BD14FEA033124
:1059A0004FEA0530340341EA155140EA16506FF0D2
:1059B00003020AE04FEAC3214FEAC520F40241EA9C
:1059C000555140EA56506FF0020202EB2E4201EBB5
:1059D000025585EACE710AD05FEA440C18BF24F064
:1059E000004450F1000041F1000120EAD47040F27F
:1059F000FE7C624500D270BDA84214BF4FF08044C7
:105A00004FF04044002E08BF0024BEF1806FA8BFB5
:105A1000A1F1C041BDE8704080F282804FF00000EB
:105A200001F1C04101F0004170479EEA0C0F0CEA01
:105A3000131518BF95EA0C0F06D04FF0000081EA4D
:105A4000030E0EF0004170BD00F01CF88900013E0D
:105A500000F007B800F009B84FEA430C5FEA5C5C5D
:105A600008D081EA030100F05BB84FEA410C5FEA1D
:105A70005C5CF6D14FF00000014970470000FF0761
:105A80000000F87F0EF1020E2EF0030E5EF8046B9C
:105A9000364205D4012A43EB030515F5001F12D841
:105AA000012841EB010C1CF5001F0CD80ED14FEA68
:105AB000D17C15F5001F0CEB4C0C0CF1020C08BF4F
:105AC0004CEBD37C04E04FF0080C01E04FEAD37CB0
:105AD0000CEB4C0526FA05F606F00706B6F1040CA9
